:100000007D29FF3FFF3FFF3FFF00030E8301A50057
:100010000408A4000A08A6008A017008AD008B1C21
:100020007228A30A2308FF3C03181728A3012308FA
:1000300087006430F4002308F000D6207008CB3F1E
:10004000F20000300318013FF3007208A2007308A9
:10005000A1000A08A000E720880020088A000430D8
:1000600085006430F400EE2070082302A7007108B8
:10007000031C013FA801A8020A30F4000030F5007B
:100080002708F0002808F10007217008CB3FF20094
:1000900000300318013FF3007208A2007308A100AA
:1000A0000A08A000E720880020088A0002308500A6
:1000B0000A30F400EE2070082702F0000030F10052
:1000C000CB30F00700300318013FF1077008A200A1
:1000D0007108A1000A08A000E720880020088A0013
:1000E000013085000330FC00FF30FB00FF30FA00D8
:1000F000FC0B7B288228FB0B7E288128FA0B7E28AC
:100100007B2878280B30FB00FF30FA00FB0B892896
:100110008C28FA0B892886281830FA00FA0B8E28CA
:1001200090308B002D08F00026088A0024088400F7
:10013000250E8300FF0E7F0E090003138312710D3D
:10014000F80DF90D7408F8027508031C750FF90213
:10015000F00DF10D0F30FC00710DF80DF90D740864
:10016000701CB828F8027508031C750FF902BD2829
:10017000F80775080318750FF907F00DF10DFC0B62
:10018000AC287018C9287408F80775080318750F8B
:10019000F907000008003F3406345B344F346634FE
:1001A0006D347D3407347F346F34080003138312B9
:1001B000F8010830FC00700DF80D7408F8020318FF
:1001C000E328F8070310F00DFC0BDB2808000313ED
:1001D000831221088A002208820008000313831278
:1001E0007008F100F0010830FC007108F40C0318ED
:1001F000FD28FC0BF628F101003403100229F40C51
:100200000318F107F10CF00CFC0BFF280800031396
:100210008312FD01F901F80171087004031900341B
:1002200071087506FA00FA1BFD09FB01F51F1D296F
:10023000F409F509F40A0319F50AF11F2429F00954
:10024000F109F00A0319F10A71087504FA00FA1BA2
:1002500039299D207B184C29FD1F0034F009F10934
:10026000F00A0319F10AF809F909F80A0319F90A59
:100270000034F51F4829F11B44297108F900700862
:10028000F800F101F0012C29F101F001F00A00342D
:10029000F109F009FB0A2929F80A0319F90A740877
:1002A0007802031D2C2975087902031D2C29F901F8
:1002B000F801F00A0319F10AF11F2C290000FF349C
:1002C00008000313831288018316880107309F00FA
:1002D000013086008312870183168701073085006D
:1002E000080090308B00FF30031383168100080054
:1002F000003003138312A3000800782161217121CB
:100300008312A901AA01AB01AC0180302C06F000D8
:1003100080307002031D962900302B02031D9629A0
:10032000D6302A02031D9629D83029020318A229A3
:10033000FF308800A90A0319AA0A0319AB0A031996
:10034000AC0A8529A901AA01AB01AC0180302C06B9
:10035000F00080307002031DB72900302B02031D0E
:10036000B729D6302A02031DB729D830290203182D
:10037000C2298801A90A0319AA0A0319AB0A031999
:10038000AC0AA6298029C329FF3FFF3FFF3FFF3F5B
:02400E007A3FF7
:00000001FF
